:020000040000FA
:060000004FEF79F0120041
:020006001200E6
:0600080018EF72F0120077
:02000E000004EC
:04001000A300000049
:020014000100E9
:06001800BBEF71F01200C5
:02001E002800B8
:100020004FF50000EC050000110000003FF5000056
:10003000B0070000100000002FF50000A00700002E
:10004000100000001DF50000C905000012000000AE
:100050000BF50000B705000012000000FBF40000E3
:100060009007000010000000EBF400008007000083
:1000700010000000D8F400005C0500001300000030
:10008000C8F400007007000010000000B8F4000081
:100090006007000010000000A8F4000050070000F6
:1000A0001000000098F4000040070000100000005D
:1000B00088F40000300700001000000078F4000011
:1000C000200700001000000068F400001007000086
:1000D0001000000058F400000007000010000000AD
:1000E00048F40000F00600001000000036F40000A4
:1000F000A50500001200000026F40000E006000044
:100100001000000016F40000D006000010000000EF
:1001100006F40000C006000010000000F1F300002B
:100120003305000015000000E1F30000B0060000F8
:1001300010000000D1F30000A00600001000000035
:10014000C1F300009006000010000000B1F30000B1
:100150008006000010000000A1F3000070060000FF
:100160001000000091F30000600600001000000085
:1001700081F30000500600001000000071F3000041
:10018000400600001000000060F30000DB050000E6
:100190001100000050F300003006000010000000C5
:1001A0003EF3000093050000120000002EF3000053
:1001B00020060000100000001EF3000010060000E2
:1001C000100000000AF300004805000014000000C1
:1001D000FAF200000006000010000000EAF2000041
:1001E000700E000010000000D8F200008105000031
:1001F0001200000014000000FE00000002000000D9
:10020000010143510501A35D01E140D0FE0EA35D54
:100210001BE01C0EE66EE66A270EE66E010EE66E29
:10022000A3511C0DF3CF14F0F4CF15F0000E1426DB
:100230000E0E152214C0E6FF15C0E6FF14EC73F095
:10024000166E060EE15E165043C1A3F5FE0E0101C7
:10025000435D01E11BD01C0EE66EE66A43511C0DA6
:10026000F3CF14F0F4CF15F0000E14260E0E152265
:1002700014C0E6FF15C0E6FF270EE66E010EE66E1F
:1002800014EC73F0166E060EE15E165012000501B6
:10029000A351A45D01E14FD0FE0EA45D32E0250E16
:1002A0000101B86FB96B0101010EB76F0101020EB8
:1002B000B56F010EB66F0501A4511C0DF3CFE9FF18
:1002C000F4CFEAFF000EE9260E0EEA221B0EE92605
:1002D000000EEA22EFCFB4F1A4511C0DF3CFE9FFD9
:1002E000F4CFEAFF000EE9260E0EEA22EECFB2F1BD
:1002F000EFCFB3F10101250EB25F000EB35BB5EC99
:1003000020F0A3C5A4F5250E0101B86FB96B42C159
:10031000B7F127C1B5F128C1B6F10101B55F000EF3
:10032000B65B0101010EB46F0101020EB26F010E46
:10033000B36FB5EC20F012000C01310E1D6F160EDC
:100340001E6F0101005101110FE1D6EC4CF006C007
:1003500000F107C001F1FF0E01010017070E0117A0
:10036000000E0027040E01233C0EE66EE66AE66AE4
:10037000B80EE66E020EE66E62EC73F0146E050EB9
:10038000E15E14500C01156B146B1451146E156A58
:10039000040E145C000E155801E326D114CC43F171
:1003A0002FDFBA0E146EF20E156E000E166E14CC00
:1003B00017F0186A196A060E0C6E0D6A0E6A17C0DD
:1003C00007F018C008F019C009F028EC78F004C054
:1003D00017F005C018F006C019F014501724F36E7A
:1003E00015501820F46E16501920F86EF4CFF7FF50
:1003F000F3CFF6FFF62A000EF722F8220800F5CF19
:100400001CFCBA0E146EF20E156E000E166E14CC95
:1004100017F0186A196A060E0C6E0D6A0E6A17C07C
:1004200007F018C008F019C009F028EC78F004C0F3
:1004300017F005C018F006C019F014501724F36E19
:1004400015501820F46E16501920F86EF4CFF7FFEF
:10045000F3CFF6FF020EF626000EF722F82209006F
:10046000F5CF16FC0A00F5CF17FCBA0E146EF20E8B
:10047000156E000E166E14CC17F0186A196A060E67
:100480000C6E0D6A0E6A17C007F018C008F019C08C
:1004900009F028EC78F004C017F005C018F006C089
:1004A00019F014501724F36E15501820F46E1650DE
:1004B0001920F86EF4CFF7FFF3CFF6FF040EF626FF
:1004C000000EF722F8220900F5CF18FC0A00F5CF3C
:1004D00019FC0C011C5101E086D01DCC1AFC1ECC6D
:1004E0001BFC250E176A1625166E17511722010ED2
:1004F0001626000E172216501825146E17501921B3
:10050000156E010E1426000E152214501D271550CD
:100510001E231DCC14F01ECC15F0166A176AD88065
:10052000FE0E14541E0E1554000E1654000E1754D1
:1005300001E2EFD71CCC42F1250E0C011A25010176
:10054000276F000E0C011B210101286F27510C01A0
:1005500016250101296F28510C01172101012A6F6D
:10056000010E2927000E2A2329510C01182501010B
:100570002B6F2A510C01192101012C6F0D0E3D6FBB
:100580003E9785DEBA0E146EF20E156E000E166ED4
:1005900014CC17F0186A196A060E0C6E0D6A0E6AF2
:1005A00017C007F018C008F019C009F028EC78F05F
:1005B00004C017F005C018F006C019F01450172435
:1005C000F36E15501820F46E16501920F86EF4CF03
:1005D000F7FFF3CFF6FF0800F5CF26F1BFEC17F0D9
:1005E0000C01142BD2D6FFD712000C01166B16513A
:1005F000146E156A040E145C000E155801E3C6D083
:1006000016CC43F1FDDD0D0E01013D5D01E0BBD0D7
:100610003EDE01014B51265D01E0B5D048510CE1B1
:1006200049C112F14AC113F13E87040E3D6F49C121
:1006300040F14AC141F1A4D0000E005D040E015901
:1006400006E3880ED8800055130E015503E2006BB7
:10065000040E016F00C112F101C113F1002B000E55
:10066000012349C110F14AC111F14EEC77F006C0E7
:1006700035F107C036F108C037F109C038F1010182
:100680003E894851040A3DE0070A18E0020A03E0E7
:10069000030A01E075D044C118F145C119F146C102
:1006A0001AF147C11BF1020E485D02E0000E01D0B5
:1006B000010E2495E8B024853D6B62D04651442557
:1006C000166E47514521176E16504925146E175066
:1006D0004A21156E14501219406F15501319416FAD
:1006E00044C118F145C119F146C11AF147C11BF1C6
:1006F000256B260E026F036B046B056B020E3D6FBC
:100700003FD044C1E9FF45C1EAFF020EE926000ED1
:10071000EA22EECF18F0EFCF19F044C1E9FF45C14E
:10072000EAFF1850EE24166E1950EE20176E165080
:100730004925146E17504A21156E14501219406F36
:1007400015501319416F0A0EE66EE66A44C1E6FFC2
:1007500045C1E6FF180EE66E010EE66E14EC73F06E
:10076000146E060EE15E14500101050E3D6F01018D
:10077000010EA16F0101020EA06F0DEC11F000D06F
:100780000C01165105D00C01162B31D7FE0E00D0EE
:1007900012004CC143F134DD01013FA903D03F9960
:1007A000010E02D0000E00D012004DC143F128DD31
:1007B000070E01013D5D02E0000E01D0010E00D0E8
:1007C00012004EC143F11CDD31C133F132C134F1AD
:1007D00001013D51080A3AE0010A38E0050A36E015
:1007E000020A31E0050A23E00D0A15E0010A13E0D0
:1007F000070A0EE0020A0CE0010A0AE0060A08E015
:10080000040A01E023D0F9EC57F0BFEC17F028D030
:10081000BFEC17F025D00101010EA16F0101110EEF
:10082000A06F0DEC11F00101080E3D6F19D0010110
:10083000010EA16F0101110EA06F0DEC11F001016D
:100840000C0E3D6F0DD00D0E3D6F0AD00101A16B56
:100850000101140EA06F0DEC11F0BFEC17F000D0E9
:1008600012004FC143F1CCDC12DD0A0EE66EE66ADF
:10087000180EE66E010EE66E500EE66E010EE66E86
:1008800014EC73F0146E060EE15E145010C15AF1B0
:1008900011C15BF1500E146E010E156E14C0F3FF02
:1008A00015C0F4FF00D012005CC143F1A9DCEFDCFD
:1008B00001010E512D1902E10F512E1908E001011D
:1008C000010EA16F0101100EA06F0DEC11F01200CE
:1008D0005DC143F195DC3DC145FC070E0C01455D52
:1008E00006E00B0E455D03E0F36AF46A2FD00101C8
:1008F0002F512D5D30512E591BE32751295D166E66
:100900002A512855176E1606000E175A2F512D5DC5
:10091000186E2E513055196E1850165C146E195001
:100920001758156E14C0F3FF15C0F4FF0FD00ED08A
:100930002D512F5D146E30512E55156E1406000E7C
:10094000155A14C0F3FF15C0F4FF00D012005EC1A9
:1009500043F156DC5EC15DF1BBDFF3CF16FCF4CF93
:1009600017FC0C011651171103E1000E63D008D0DB
:10097000010E161901E1175103E15EC15CF194DF2C
:1009800001013F51010B14E12751295D146E2A51D9
:100990002855156ED890153214320C011651145C7E
:1009A0001751155805E35EC15CF17EDF01013F81FF
:1009B000010E0101B86FB96B0101B76F01015F0E44
:1009C000B56F010EB66F42C1B4F12DC1B2F12EC1A7
:1009D000B3F1B5EC20F001012D2B000E2E2329518F
:1009E0002D5D2A512E5904E327C12DF128C12EF186
:1009F0000C01010E161901E1175104E15EC15CF111
:100A000053DF16D001013EBB13D03E8B59EC77F07B
:100A100006C014F007C015F0166A176A060E1426F1
:100A2000000E15221622172214C039F115C03AF112
:100A3000010E00D012000C01AA6BAB6B60C143F138
:100A400000EC01F060C15DF143DFF3CFA8FCF4CF0F
:100A5000A9FC0C01A851A91106E160C15CF124DFD9
:100A6000F36AF46AADD0A8CCA6FCA9CCA7FCA85127
:100A70000101635D0C01A9510101645904E263C1E4
:100A8000A6FC64C1A7FC3F51010B14E12751295D6D
:100A9000146E2A512855156ED890153214320C0157
:100AA000A851145CA951155805E360C15CF1FCDE46
:100AB00001013F8101012D510C01A625146E010198
:100AC0002E510C01A721156E01012951145C2A51E8
:100AD00015582DE32D51295D0C01AA6F01012E51EE
:100AE0002A590C01AB6FAACCB8F1ABCCB9F101011A
:100AF000010EB76F61C1B5F162C1B6F142C1B4F187
:100B00002DC1B2F12EC1B3F1B5EC20F00C01AA5108
:100B1000010161270C01AB51010162230C01AA51B3
:100B2000A65FAB51A75B27C12DF128C12EF1A6CC42
:100B3000B8F1A7CCB9F10101010EB76F61C1B5F1F0
:100B400062C1B6F142C1B4F12DC1B2F12EC1B3F10F
:100B5000B5EC20F00C01A65101012D270C01A75185
:100B600001012E230C01A8510101635D0C01A95163
:100B70000101645904E360C15CF196DE15D03EBB0F
:100B800013D03E8B59EC77F006C014F007C015F077
:100B9000166A176A060E1426000E15221622172250
:100BA00014C039F115C03AF10C01A651AA25146EF2
:100BB000A751AB21156E14C0F3FF15C0F4FF00D090
:100BC00012000C01166B176B65C143F100EC01F0CC
:100BD00065C15DF17DDEF3CF14FCF4CF15FC0C0193
:100BE0001451151106E165C15CF15EDEF36AF46A29
:100BF000B0D001013F51010B14E12751295D146E62
:100C00002A512855156ED890153214320C01145102
:100C1000145C1551155805E365C15CF145DE010111
:100C20003F8114CC12FC15CC13FC0C0114510101B2
:100C3000695D0C01155101016A5904E269C112FC98
:100C40006AC113FC2D510C011225146E01012E51A5
:100C50000C011321156E01012951145C2A511558FC
:100C600030E32D51295D0C01166F01012E512A59D7
:100C70000C01176F16CCC0F117CCC1F166C1BDF1E4
:100C800067C1BEF168C1BFF142C1BCF12DC1BAF16B
:100C90002EC1BBF115EC21F016CC14F017CC15F0D9
:100CA000166A1450010166271550672316506823F1
:100CB0000C011651125F1751135B27C12DF128C18A
:100CC0002EF112CCC0F113CCC1F166C1BDF167C1E8
:100CD000BEF168C1BFF142C1BCF12DC1BAF12EC154
:100CE000BBF115EC21F00C01125101012D270C0173
:100CF000135101012E230C0114510101695D0C01F6
:100D0000155101016A5904E365C15CF1CDDD15D0CF
:100D10003EBB13D03E8B59EC77F006C014F007C0F1
:100D200015F0166A176A060E1426000E15221622F2
:100D3000172214C039F115C03AF10C0112511625D1
:100D4000146E13511721156E14C0F3FF15C0F4FF74
:100D500000D012006CC1E6FF6DC1E6FFCBEC73F072
:100D6000E552E552F3CF63F1F4CF64F16CC161F168
:100D70006DC162F16BC160F15EDE01016C51F32463
:100D8000146E6D51F420156E14C0F3FF15C0F4FFFE
:100D900000D012006FC1E6FF70C1E6FF71C1E6FF2F
:100DA000D9EC73F0E552E552E55207C069F108C08D
:100DB0006AF16FC166F170C167F171C168F16EC10E
:100DC00065F1FFDEF3CF17F0F4CF18F0196A0101D7
:100DD0006F511724146E70511820156E715119201F
:100DE000166E14C007F015C008F016C009F000D048
:100DF000120072C143F100EC01F001012751295D9D
:100E00000C01026F010128512A590C01036F010ED8
:100E1000025F000E035B72C15DF15ADDF3CF00FC8F
:100E2000F4CF01FC0C010051025D146E0351015519
:100E3000156E14C0F3FF15C0F4FF00D0120073C18B
:100E400074F118D8F3CF14F0F4CF15F01450151036
:100E500010E073C143F100EC01F031C133F132C154
:100E600034F10101010EA16F0101100EA06F0DEC14
:100E700011F0120074C143F100EC01F00101335193
:100E8000315D345132590CE33351315D146E3251BE
:100E90003455156E14C0F3FF15C0F4FF1CD01BD0E1
:100EA00033512B5D166E2C513455176E010E1626DC
:100EB000000E17222951315D186E32512A55196ED4
:100EC00016501824146E17501920156E14C0F3FF15
:100ED00015C0F4FF00D0120075C174F1CBDFF3CF61
:100EE00000FCF4CF01FC0C010051011102E1000EE5
:100EF00048D075C143F100EC01F001017651771142
:100F000012E0010E0101B86FB96B42C1B7F133C1F4
:100F1000B5F134C1B6F10101B46F76C1B2F177C158
:100F2000B3F1B5EC20F00101332B000E3423335123
:100F30002B5D34512C5904E229C133F12AC134F11B
:100F40000C01010E001901E1015103E101013F858E
:100F500016D001013EBB13D03E8B59EC77F006C092
:100F600014F007C015F0166A176A060E1426000E54
:100F700015221622172214C039F115C03AF1010EBC
:100F800000D012000C01186B196B78C174F172DF7C
:100F9000F3CF16FCF4CF17FC0C011651171103E127
:100FA000F36AF46AA1D078C143F100EC01F00101C9
:100FB0007B510C01165D01017C510C01175904E2B3
:100FC00016CC7BF117CC7CF1010133517B25146EDB
:100FD00034517C21156E14502B5D15502C5938E27C
:100FE00033512B5D0C01186F010134512C590C0148
:100FF000196F010E1827000E1923010179517A117A
:101000001BE018CCB8F119CCB9F142C1B7F133C12A
:10101000B5F134C1B6F10101010EB46F79C1B2F17D
:101020007AC1B3F1B5EC20F00C0118510101792718
:101030000C01195101017A230C01185101017B5F48
:101040000C01195101017C5B29C133F12AC134F132
:1010500079517A1113E07BC1B8F17CC1B9F142C179
:10106000B7F133C1B5F134C1B6F10101010EB46F6E
:1010700079C1B2F17AC1B3F1B5EC20F001017B5135
:1010800033277C5134230C01185101017B270C01BB
:10109000195101017C237B510C01165D146E17510F
:1010A00001017C55156E14507B5D15507C5902E38F
:1010B0003F8515D03EBB13D03E8B59EC77F006C070
:1010C00014F007C015F0166A176A060E1426000EF3
:1010D00015221622172214C039F115C03AF17BC12E
:1010E000F3FF7CC1F4FF00D012007DC143F100EC9E
:1010F00001F0010129512B5D0C01026F01012A5100
:101100002C590C01036F7DC174F1B4DEF3CF00FCE8
:10111000F4CF01FC0C010051025D146E0351015526
:10112000156E14C0F3FF15C0F4FF00D012000101CA
:101130008151821103E1F36AF46AB2D17EC143F1B5
:1011400000EC01F07EC174F195DE01018351F35C86
:101150000C01026F01018451F4580C01036F01016D
:1011600081510C01025D010182510C01035903E21E
:10117000F368F46895D10101855186110DE00C01E9
:1011800002510101855D0C0103510101865904E200
:1011900085C102FC86C103FC335183250C01066F17
:1011A0000101345184210C01076F065101012B5DAF
:1011B0000C01075101012C590FE229512B5D146ECE
:1011C0002C512A55156E010E1426000E15221450AE
:1011D0000C01065F1550075B06CC00FC07CC01FC38
:1011E0000C01065101012B5D0C01046F0751010137
:1011F0002C590C01056F010E0427000E052383C135
:1012000006FC84C107FC81C108FC82C109FC7FC1C6
:101210000AFC80C10BFC01017FC1E9FF80C1EAFF2C
:101220007F2B8023EFCF0DFC0C010F6B0101875149
:1012300009E0610E0C010D5D05E30D517A0802E332
:10124000E00E0D270C01200E0E6F0E51045D000EF6
:10125000055902E204CC0EFC0E51025D000E03594A
:1012600002E202CC0EFC0E510101B86FB96B42C113
:10127000B7F100CCB5F101CCB6F10101010EB46FAC
:101280000101100EB26F0C0EB36FB5EC20F00C0123
:101290000E51146E156A14500027155001230E517B
:1012A000146E156A1450045F1550055B0451051146
:1012B00006E129C100FC2AC101FC0469056901019C
:1012C000875101E181D00C010C6B0E510C5D01E3E3
:1012D0007AD00C51EA6A100FE96E0C0EEA22EFCFB9
:1012E00014F0610E145C13E30C51EA6A100FE96EFE
:1012F0000C0EEA22EF507A080AE3E00E146E0C514D
:10130000EA6A100FE96E0C0EEA221450EF260C5117
:10131000EA6A100FE96E0C0EEA22EF500D5D33E120
:1013200001018107000E825B8151821117E10C01DE
:101330000851065D166E07510955176E0C510001D4
:101340001624146E000E1720156E010E1426000EC2
:10135000152214C0F3FF15C0F4FFA2D07FC1E9FF2E
:1013600080C1EAFF7F2B000E8023EFCF0DFC0C0124
:10137000010E0F6F610E0D5D05E30D517A0802E35A
:10138000E00E0D271ED008CC81F109CC82F10F515F
:1013900018E00ACC7FF10BCC80F101017FC1E9FF9D
:1013A00080C1EAFF7F2B000E8023EFCF0DFC610E82
:1013B0000C010D5D05E30D517A0802E3E00E0D27E7
:1013C0000F6B0C2B82D751D00C010C6B0E510C5DA6
:1013D0004CE20C51EA6A100FE96E0C0EEA22EF5053
:1013E0000D5D2BE101018107000E825B81518211AD
:1013F00017E10C010851065D166E07510955176E6D
:101400000C5100011624146E000E1720156E010EEB
:101410001426000E152214C0F3FF15C0F4FF40D0AF
:101420007FC1E9FF80C1EAFF7F2B000E8023EFCF51
:101430000DFC0C01010E0F6F16D008CC81F109CC08
:1014400082F10F5110E00ACC7FF10BCC80F1010149
:101450007FC1E9FF80C1EAFF7F2B000E8023EFCF21
:101460000DFC0C010F6B0C2BB1D70E51146E156ACD
:101470001450025F1550035B010181510C01025DA4
:10148000010182510C01035903E2F368F46808D0AA
:101490000E51146E156A1450062715500723D2D624
:1014A000120001018C518D1103E1F36AF46ACCD171
:1014B00088C143F100EC01F088C174F1DBDC01016B
:1014C0008E51F35C0C01026F01018F51F4580C0135
:1014D000036F01018C510C01025D01018D510C0162
:1014E000035903E2F368F468AFD1010190519111FF
:1014F0000DE00C0102510101905D0C01035101014D
:10150000915904E290C102FC91C103FC33518E2534
:101510000C01066F010134518F210C01076F065138
:1015200001012B5D0C01075101012C590FE22951DA
:101530002B5D146E2C512A55156E010E1426000ECB
:10154000152214500C01065F1550075B06CC00FCF9
:1015500007CC01FC0C01065101012B5D0C01046F4D
:10156000075101012C590C01056F010E0427000ED3
:1015700005238EC106FC8FC107FC8CC108FC8DC100
:1015800009FC89C10AFC8AC10BFC8BC10CFC01015E
:1015900089C1F6FF892B8AC1F7FF8A238BC1F8FF27
:1015A0008B230800F5CF0EFC0C01106B010192514A
:1015B00009E0610E0C010E5D05E30E517A0802E3AD
:1015C000E00E0E270C01200E0F6F0F51045D000E70
:1015D000055902E204CC0FFC0F51025D000E0359C5
:1015E00002E202CC0FFC0F510101B86FB96B42C18E
:1015F000B7F100CCB5F101CCB6F10101010EB46F29
:101600000101110EB26F0C0EB36FB5EC20F00C019E
:101610000F51146E156A14500027155001230F51F5
:10162000146E156A1450045F1550055B04510511C2
:1016300006E129C100FC2AC101FC04690569010118
:10164000925101E18BD00C010D6B0F510D5D01E347
:1016500084D00D51EA6A110FE96E0C0EEA22EFCF29
:1016600014F0610E145C13E30D51EA6A110FE96E78
:101670000C0EEA22EF507A080AE3E00E146E0D51C8
:10168000EA6A110FE96E0C0EEA221450EF260D5192
:10169000EA6A110FE96E0C0EEA22EF500E5D37E197
:1016A00001018C07000E8D5B8C518D1117E10C012F
:1016B0000851065D166E07510955176E0D51000150
:1016C0001624146E000E1720156E010E1426000E3F
:1016D000152214C0F3FF15C0F4FFB6D089C1F6FF80
:1016E000892B8AC1F7FF000E8A238BC1F8FF8B2359
:1016F0000800F5CF0EFC0C01010E106F610E0E5D9F
:1017000005E30E517A0802E3E00E0E2724D008CC40
:101710008CF109CC8DF110511EE00ACC89F10BCC73
:101720008AF10CCC8BF1010189C1F6FF892B8AC1AA
:10173000F7FF000E8A238BC1F8FF8B230800F5CF3B
:101740000EFC610E0C010E5D05E30E517A0802E3FA
:10175000E00E0E27106B0D2B78D75BD00C010D6BB4
:101760000F510D5D56E20D51EA6A110FE96E0C0E34
:10177000EA22EF500E5D2FE101018C07000E8D5B18
:101780008C518D1117E10C010851065D166E075141
:101790000955176E0D5100011624146E000E172006
:1017A000156E010E1426000E152214C0F3FF15C08D
:1017B000F4FF4AD089C1F6FF892B8AC1F7FF000EDA
:1017C0008A238BC1F8FF8B230800F5CF0EFC0C0198
:1017D000010E106F1CD008CC8CF109CC8DF110518A
:1017E00016E00ACC89F10BCC8AF10CCC8BF101010B
:1017F00089C1F6FF892B8AC1F7FF000E8A238BC1AE
:10180000F8FF8B230800F5CF0EFC0C01106B0D2B9D
:10181000A7D70F51146E156A1450025F1550035B61
:1018200001018C510C01025D01018D510C01035924
:1018300003E2F368F46808D00F51146E156A14506F
:10184000062715500723BED6120099C187F197C10C
:1018500085F198C186F195C183F196C184F1010E9D
:101860000101816F826B0101940E7F6F010E806F09
:1018700093C17EF15CDC00D012000C01376B375154
:10188000146E156A040E145C000E155801E380D323
:1018900037CC43F100EC01F00C013A6B386B396B3B
:1018A00001013F51020B03E13F51040B0EE0C9EC73
:1018B00062F000090AE00C01100E3A6F01013F517D
:1018C000040B01E0010E0C01386F01013EAB13D097
:1018D00059EC77F001010650395D146E07503A5902
:1018E000156E153404E214500008000E155403E37D
:1018F0000C01100E3A6F01013EAD13D059EC77F098
:10190000010106503B5D146E07503C59156E1534AD
:1019100004E214500008000E155403E30C01100EED
:101920003A6F0B0E01013D5D16E159EC77F00101B4
:1019300006503B5D146E07503C59156E153404E299
:1019400014500008000E155406E30C01110E3A6FF6
:1019500001010C0E3D6F040E3D5D01E00AD10C014A
:101960003B6B3C6B030E3B5D000E3C5901E301D128
:101970003BCCE9FF3CCCEAFF140EEA02F3CFEAFFCE
:10198000E902F3CFE9FFF450EA26B80EE926020E89
:10199000EA22100EE926000EEA22EE50ED1001E1D7
:1019A000E8D03BCCE9FF3CCCEAFF140EEA02F3CFCF
:1019B000EAFFE902F3CFE9FFF450EA26B80EE92680
:1019C000020EEA22100EE926000EEA22EECF14F0F3
:1019D000EFCF15F001014051141802E141511518E3
:1019E00001E0C2D047EC01F00A0EE66EE66A3BCC9D
:1019F000E9FF3CCCEAFF140EEA02F3CFEAFFE9026A
:101A0000F3CFE9FFF450EA26B80EE926020EEA22E7
:101A1000E9CF14F0EACF15F014C0E6FF15C0E6FFD9
:101A2000180EE66E010EE66E14EC73F0166E060EDE
:101A3000E15E16503BCCE9FF3CCCEAFF140EEA0213
:101A4000F3CFEAFFE902F3CFE9FFF450EA26B80E3C
:101A5000E926020EEA220A0EE926000EEA22EECF5D
:101A600010F1EDCF11F13BCCE9FF3CCCEAFF140EB5
:101A7000EA02F3CFEAFFE902F3CFE9FFF450EA26E6
:101A8000B80EE926020EEA220C0EE926000EEA2222
:101A9000EECF0AF1EECF0BF1EECF0CF1EFCF0DF15F
:101AA00001010A2B0B230C230D231A511825166E46
:101AB0001B511921176E16501025146E1750112145
:101AC000156E14501219406F15501319416F0C0107
:101AD000120E3A6F0101060E3D6F3BCCB8F13CCCC3
:101AE000B9F10101020ED880B857000EB957140E93
:101AF000B903F3CFB9F1B803F3CFB8F1F450B92774
:101B00000101010EB76F0C013B250101B56F000EFD
:101B10000C013C210101B66F140EB603F3CFB6F1F0
:101B2000B503F3CFB5F1F450B627B80EB527020EC2
:101B3000B6230101010EB46F140E086E096A3BCC86
:101B40000DF03CCC0EF00AEC78F006C0B2F107C004
:101B5000B3F1B80E0101B227020EB323B5EC20F0A9
:101B60000201F06BF16B05D00C013B2B000E3C2306
:101B7000F9D60C013A510AE0385102E0000E01D0CA
:101B8000010E0101A16F3ACCA0F147DB01013EB982
:101B90004ED0070E3D5D4AE14EEC77F00101355124
:101BA000065C146E36510758156E37510858166E7C
:101BB00038510958176E0001800E171401E0E5D165
:101BC00001013E51070B060815E13E51080B01E0EB
:101BD000010E0C013A6F37CC4EF1E1EC03F037CC3B
:101BE0004EF1E1EC03F00C013A5103E101010E0E5C
:101BF0003D6FCBD147EC01F00101020EA16F010155
:101C0000100EA06F0ADB4EEC77F006C035F107C06E
:101C100036F108C037F109C038F1E60E0101352769
:101C2000F50E3623050E3723000E3823AED14EECC9
:101C300077F001013551065C146E36510758156E68
:101C400037510858166E38510958176E0001800E2A
:101C5000171401E09AD147EC01F001013D510C0A43
:101C600001E136D1060A01E124D1030A01E11BD1C9
:101C7000010A01E109D10F0A01E1F7D00C0A01E1E3
:101C8000F4D00D0A01E1DCD0030A01E1D3D0060A49
:101C900001E17BD0010A68E0030A20E0010A01E0CB
:101CA00026D1F0EC57F0000918E00101010E3D6F5C
:101CB00024A50BD00401E76F18C1E4F419C1E5F4C1
:101CC0001AC1E6F42CEC58F008D00401E36F18C1F7
:101CD000E1F419C1E2F40CEC58F009D104013D0E15
:101CE000E86F0C0EE96F4FEC58F000093CE0F9EC9E
:101CF00057F0000924E03DCC18F13ECC19F13FCC5F
:101D00001AF140CC1BF10101020E3D6F1A5118254A
:101D1000166E1B511921176E16501025146E175090
:101D20001121156E14501219406F15501319416F7F
:101D3000256B260E026F036B046B056B14D04EEC03
:101D400077F006C035F107C036F108C037F109C099
:101D500038F1E60E01013527F50E3623050E37233F
:101D6000000E38233D6BC3D059EC77F006C039F133
:101D700007C03AF10501180E166F010E176F68ECD7
:101D80006CF00101030E3D6FB2D005011C0E1A6FFD
:101D9000010E1B6F0501180E186F010E196FACECC8
:101DA0006CF000093FE139C118F03AC119F01A6A24
:101DB0001B6A18C0E6FF19C0E6FF1AC0E6FF1BC089
:101DC000E6FF59EC77F0E552E7CF1BF0E552E7CF9D
:101DD0001AF0E552E7CF19F0E552E7CF18F000010D
:101DE0001850065C146E19500758156E1A50085892
:101DF000166E1B500958176E14500101025D1550E4
:101E0000035916500459175005590BE2060E255D6B
:101E100006E2252BD8900237033704370537020E28
:101E20003D6F65D00C01020E3A6F386B0101050E53
:101E30003D6F5DD00C01020E3A6F010E386F57D026
:101E4000020E255D06E20C01120E3A6F010E386F8C
:101E50000BD03EA706D00C01140E3A6F010E396F5D
:101E600003D00C01020E3A6F42D0050E255D06E24A
:101E70000C01100E3A6F010E386F05D0080E3D6F41
:101E80000C01110E3A6F33D0050E255D06E20C01F0
:101E9000110E3A6F010E386F05D00C01140E3A6F17
:101EA000010E396F24D00C01140E3A6F010E396FF8
:101EB0001ED0050E255D06E20C01100E3A6F010ED4
:101EC000386F05D00C01140E3A6F010E396F0FD028
:101ED000050E255D06E20C01110E3A6F010E386FFA
:101EE00005D00C01140E3A6F010E396F00D00C01B1
:101EF0003A5146E038513EE00101252BD890023797
:101F00000337043705372F510E5D146E0F513055CE
:101F1000156E166A176A15AE02D016681768145047
:101F2000065F1550075B1650085B1750095B2F5171
:101F30000E5D30510F5914E22751295D146E2A515C
:101F40002855156E166A176A15AE02D016681768FE
:101F50001450065F1550075B1650085B1750095B5D
:101F60002FC10EF130C10FF10101A16B3ACCA0F1EC
:101F700054D906D00101010EA16F3ACCA0F14DD980
:101F80000C01395102E0BFEC17F00C01372B77D46C
:101F90003B6B3C6B030E3B5D000E3C5901E399D05B
:101FA0003BCCE9FF3CCCEAFF140EEA02F3CFEAFF98
:101FB000E902F3CFE9FFF450EA26B80EE926020E53
:101FC000EA22100EE926000EEA22EE50ED1001E1A1
:101FD00080D03BCCE9FF3CCCEAFF140EEA02F3CF01
:101FE000EAFFE902F3CFE9FFF450EA26B80EE9264A
:101FF000020EEA22120EE926000EEA22EECF16F0B9
:10200000EFCF17F016C0E6FF17C0E6FF59EC77F0E8
:10201000E552E7CF17F0E552E7CF16F01650065C11
:10202000146E17500758156EC90ED8801454010E3F
:1020300015544AE23BCCB8F13CCCB9F10101020E97
:10204000D880B857000EB957140EB903F3CFB9F1C1
:10205000B803F3CFB8F1F450B9270101010EB76FFF
:102060000C013B250101B56F000E0C013C21010163
:10207000B66F140EB603F3CFB6F1B503F3CFB5F1D7
:10208000F450B627B80EB527020EB6230101010E93
:10209000B46F140E086E096A3BCC0DF03CCC0EF008
:1020A0000AEC78F006C0B2F107C0B3F1B80E010136
:1020B000B227020EB323B5EC20F00201F06BF16BF6
:1020C0000C013B07000E3C5B0C013B2B000E3C233C
:1020D00061D712009AC1E9FF9BC1EAFFEECF14FC61
:1020E000EECF15FCEECF16FCEFCF17FC9CC1E9FF3D
:1020F0009DC1EAFFEECF18FCEECF19FCEECF1AFC23
:10210000EFCF1BFC0C011C6B060E1D6F9EC11EFC4D
:102110009FC11FFC1ECCBCF41FCCBDF474EC51F06D
:10212000F3CF1EFCF4CF1FFC0C0E0401C46FC56B73
:102130000401140EC26F0C0EC36F9BEC51F0F3CF71
:1021400020FCF4CF21FC0C01201F211F9EC184F430
:102150009FC185F4BFEC64F0F3CF22FCF4CF23FCE5
:102160000C012251201902E12351211904E0E6EC6F
:1021700062F0010E51D005017D6B7E6B5AEC71F05F
:10218000140E04018E6F8F6B0401000E8C6F0C0E09
:102190008D6F25EC66F00101000EA66F0C0EA76F87
:1021A000E4EC16F00C010C51F00BE842E842E84276
:1021B000E842040DF350146E156A140E145E000EFE
:1021C000155A14C024FC2451146E156A14500101D0
:1021D0009E5D9E6F15509F599F6F140E9E5F000E5F
:1021E0009F5B9AC1A4F19BC1A5F10101000EA26FF2
:1021F0000C0EA36F3FDB00090BE09EC1AAF19FC14B
:10220000ABF10101000EA86F0C0EA96F04EC18F0E1
:10221000E6EC62F0010E00D0120047EC01F0010183
:10222000A0A102D03F87A0913E9B3E9D3E9F3F9341
:102230003F953F91C9EC62F0000901E1FBD7060E22
:102240000101A01504E00C016B6B6C6B5FD10E51AA
:102250002D1902E10F512E190BE10C016B6B6C6B08
:1022600001013FA704D01451151101E0A0814ED106
:102270002D510E5D2E510F5901E379D00E512D5D78
:102280000C016B6F01010F512E590C016C6F14C1C1
:102290006DFC15C16EFC01012F510E5D30510F59BF
:1022A0000CE32F510E5D146E0F513055156E145006
:1022B0000C016D5F15506E5B17D02751295D166EAE
:1022C0002A512855176E0E512F5D186E30510F553B
:1022D000196E1850165C146E19501758156E14505C
:1022E0000C016D5F15506E5B6B516D5D6C516E59DD
:1022F00004E26DCC6BFC6ECC6CFC180ED8806B5578
:10230000020E6C5506E2180E6B6F020E6C6F010127
:102310003F8501013FA70FD00C016D516B1902E100
:102320006E516C1908E0180E6B1902E1020E6C195F
:1023300002E00101A0816BCCB8F16CCCB9F142C1D3
:10234000B7F10EC1B5F10FC1B6F10101B46B0101D6
:10235000760EB26F100EB36FB5EC20F00C016B511E
:1023600001010E270C016C5101010F23CFD00E513A
:10237000295D0C01696F01010F512A590C016A6F27
:10238000695101012D25146E0C016A5101012E21A4
:10239000156E2751145C0C016B6F01012851155803
:1023A0000C016C6F14C16DFC15C16EFC01012F5145
:1023B0000E5D30510F590CE32F510E5D146E0F510D
:1023C0003055156E14500C016D5F15506E5B17D0B3
:1023D0002751295D166E2A512855176E0E512F5D13
:1023E000186E30510F55196E1850165C146E195036
:1023F0001758156E14500C016D5F15506E5B6B51C4
:102400006D5D6C516E5904E26DCC6BFC6ECC6CFC56
:10241000180ED8806B55020E6C5506E2180E6B6FC5
:10242000020E6C6F01013F8501013FA70FD00C0127
:102430006D516B1902E16E516C1908E0180E6B19A1
:1024400002E1020E6C1902E00101A0810C01695148
:102450006B5D6A516C5904E26BCC69FC6CCC6AFC14
:1024600069CCB8F16ACCB9F142C1B7F10EC1B5F18E
:102470000FC1B6F10101B46B0101760EB26F100EFF
:10248000B36FB5EC20F00C0169516B5D696F6A5157
:102490006C596A6F69516A1122E069CCB8F16ACC53
:1024A000B9F142C1B7F127C1B5F128C1B6F10101B7
:1024B000B46B01010E51295D146E2A510F55156E32
:1024C000166A176A760E1426100E1522000E1622B2
:1024D000172214C0B2F115C0B3F1B5EC20F00C0115
:1024E0006B5101010E270C016C5101010F23295181
:1024F0000E5D2A510F590AE32751295D146E2A51A6
:102500002855156E14500E5F15500F5B0C016B5162
:102510006C1104E1030E0101A01521E00C016B51C7
:102520006C1102E00101A0870101A1A107D0256B78
:10253000970E026F980E036F046B056B4EEC77F0ED
:10254000065001010225356F07500321366F0850F0
:102550000421376F09500521386F3E8938D0A1A377
:102560001BD03E0EE96E010EEA6EEF50070BE82A13
:10257000F36EF350070BF36EF46EF80EEF14F310D6
:10258000EF6EF4500607000E075B085B095B010E57
:102590000C016B6F6C6B1BD03EA919D0A1B108D098
:1025A000255106E02507D890053304330333023361
:1025B0004EEC77F0065001010225356F07500321DC
:1025C000366F08500421376F09500521386F12C14A
:1025D00047FC13C148FC10C149FC11C14AFC06C1AB
:1025E0004BFC07C14CFC08C14DFC09C14EFC0AC1A3
:1025F0004FFC0BC150FC0CC151FC0DC152FC0C0135
:10260000549D549F5391539353955397A0C154FC99
:10261000596B5A6B6B51010106270C016C5101017A
:102620000723000E08230923A0A315D0A0B905D0C5
:102630000C014F6B506B516B526B010124A306D000
:102640000C014B074C5B4D5B4E5B05D0062B072303
:102650000823092324830101A0A10DD024A106D0C1
:102660000C014B074C5B4D5B4E5B05D0062B0723E3
:1026700008230923248101013351315D345132593A
:1026800014E329512B5D146E2C512A55156E3351CC
:10269000315D166E32513455176E0C011650145CB4
:1026A000556F17501558566F0DD03151335D0C01D1
:1026B000556F0101325134590C01566F010E555FAF
:1026C000000E565B1EEC63F0F3CF45FCF4CF46FCE6
:1026D0000C01400E455F000E465B800E461502E081
:1026E000456B466B5551455D5651465904E245CC04
:1026F00055FC46CC56FC0101470EA66F0C0EA76F89
:1027000063DB140E0C016B27000E6C235389539B63
:10271000538D539F0101A0A326D0040E0C016B27FB
:10272000000E6C23020E5B6F040E5C6F020E5D6F79
:10273000140E5E6F010E146E530EE96E0C0EEA6EEF
:10274000EF50F00BE842E842E842E84214240F0B55
:10275000F36EF46EF346F346F346F3460F0EEF14B2
:10276000F310EF6EF450CCC15FFCCDC160FCCEC164
:1027700061FCCFC162FC18C163FC19C164FC1AC1C1
:1027800065FC1BC166FC0C01676B060E686F6BCCA9
:1027900069FC6CCC6AFC69CCBCF46ACCBDF474EC0A
:1027A00051F0F3CF69FCF4CF6AFC0C0E0401C46F46
:1027B000C56B04015F0EC26F0C0EC36F9BEC51F032
:1027C000F3CF57FCF4CF58FC0C01571F581F0401DE
:1027D0004E0E7C6F100E7D6F64EC64F06BCC7BF55D
:1027E0006CCC7CF50501060E7A6F0501180E786F2A
:1027F000010E796FE6EC70F0140E0401936F946B88
:102800000401470E916F0C0E926F5DEC66F00101B2
:10281000A0A30BD0040E0401936F946B04015B0E14
:10282000916F0C0E926F5DEC66F00401620E7E6F8C
:10283000100E7F6F72EC64F06BCC84F46CCC85F47A
:10284000BFEC64F0F3CF45FCF4CF46FC0401720EFC
:102850007C6F100E7D6F64EC64F0020E0401936FC8
:10286000946B0401450E916F0C0E926F5DEC66F057
:1028700028EF64F0A2C1E9FFA3C1EAFF020EE92636
:10288000000EEA22EE50ED1002E1000E9CD20C0187
:10289000FE0E266FA4C1E9FFA5C1EAFF020EE926DC
:1028A000000EEA22EECF18F0EFCF19F0A4C1E9FF35
:1028B000A5C1EAFF1850EE24166E1950EE20176ECF
:1028C000A2C1E9FFA3C1EAFF1650EE24146E17500F
:1028D000EE20156EA2C1E9FFA3C1EAFF020EE926B0
:1028E000000EEA221450EE18276F1550EE18286FCC
:1028F000256B2551146E156A040E145C000E1558D4
:1029000067E225CC43F100EC01F00D0E01013D5DC5
:1029100002E15BD024D0040E3D5D16E1A2C1E9FFC7
:10292000A3C1EAFF020EE926000EEA22EECF14F060
:10293000EFCF15F01450401902E11550411902E192
:1029400025CC26FC42D00BD00C01275101014019A7
:1029500004E10C0128510101411901E036D047EC96
:1029600001F0A2C1E9FFA3C1EAFF020EE926000EB1
:10297000EA22EECF14F0EFCF15F001011251141836
:1029800002E11351151821E1A2C1E9FFA3C1EAFF39
:10299000EECF16F0EFCF17F01051161802E11151DB
:1029A000171813E1A4C1E9FFA5C1EAFFEE501819F9
:1029B00009E1EE50191906E1EE501A1903E1EE5043
:1029C0001B1900E102E1010EFED10C01252B91D76C
:1029D000FE0E265D39E026CC43F100EC01F047EC19
:1029E00001F0FE0E0C01265D2FE027CC40F128CC33
:1029F00041F10A0EE66EE66AA4C1E6FFA5C1E6FF54
:102A0000180EE66E010EE66E14EC73F0146E060EF0
:102A1000E15E1450A2C1E9FFA3C1EAFFEECF10F1BD
:102A2000EDCF11F1A2C1E9FFA3C1EAFF020EE92631
:102A3000000EEA22EECF12F1EDCF13F127C10EF115
:102A400028C10FF1010EBFD1A2C1E9FFA3C1EAFF66
:102A50000D0EE926000EEA22EF50020B02E1000EF5
:102A6000B2D10201F051F11102E0000EACD10C0123
:102A7000296B2A6B030E295D000E2A5901E3BED093
:102A800029CCE9FF2ACCEAFF140EEA02F3CFEAFFD1
:102A9000E902F3CFE9FFF450EA26B80EE926020E68
:102AA000EA22100EE926000EEA22EE50ED1001E1B6
:102AB000A5D029CCE9FF2ACCEAFF140EEA02F3CF15
:102AC000EAFFE902F3CFE9FFF450EA26B80EE9265F
:102AD000020EEA22100EE926000EEA22EECF14F0D2
:102AE000EFCF15F0A2C1E9FFA3C1EAFF020EE9266C
:102AF000000EEA22EECF16F0EFCF17F016501418A2
:102B000002E11750151801E074D029CCE9FF2ACC56
:102B1000EAFF140EEA02F3CFEAFFE902F3CFE9FF7E
:102B2000F450EA26B80EE926020EEA220A0EE92639
:102B3000000EEA22EECF14F0EFCF15F0A2C1E9FFAC
:102B4000A3C1EAFFEECF16F0EFCF17F0165014181E
:102B500002E11750151801E04CD0A4C1E9FFA5C14E
:102B6000EAFFEECF14F0EECF15F0EECF16F0EFCF78
:102B700017F029CCE9FF2ACCEAFF140EEA02F3CFC2
:102B8000EAFFE902F3CFE9FFF450EA26B80EE9269E
:102B9000020EEA22EE500001141809E1EE50151859
:102BA00006E1EE50161803E1EE50171800E101E0BF
:102BB00020D059EC77F006C014F007C015F029CCEE
:102BC000E9FF2ACCEAFF140EEA02F3CFEAFFE9029A
:102BD000F3CFE9FFF450EA26B80EE926020EEA2206
:102BE000120EE926000EEA2214C0EEFF15C0EDFF1A
:102BF000EAD00C01292B000E2A233CD7256B255146
:102C0000146E156A040E145C000E155801E3D9D039
:102C100025CC43F100EC01F001013EA7CFD047ECF9
:102C200001F0A2C1E9FFA3C1EAFF020EE926000EEE
:102C3000EA22EECF14F0EFCF15F014500101121973
:102C400002E11550131901E0B9D00A0EE66EE66AEA
:102C5000A4C1E6FFA5C1E6FF29CCE9FF2ACCEAFF23
:102C6000140EEA02F3CFEAFFE902F3CFE9FFF450D2
:102C7000EA26B80EE926020EEA22E9CF14F0EACFDE
:102C800015F014C0E6FF15C0E6FF14EC73F0166EE5
:102C9000060EE15E1650A2C1E9FFA3C1EAFFEECF26
:102CA00014F0EFCF15F029CCE9FF2ACCEAFF140E7F
:102CB000EA02F3CFEAFFE902F3CFE9FFF450EA2694
:102CC000B80EE926020EEA220A0EE926000EEA22D2
:102CD00014C0EEFF15C0EDFFA2C1E9FFA3C1EAFFDA
:102CE000040EE926000EEA22EECF14F0EECF15F026
:102CF000EECF16F0EFCF17F029CCE9FF2ACCEAFF90
:102D0000140EEA02F3CFEAFFE902F3CFE9FFF45031
:102D1000EA26B80EE926020EEA220C0EE926000E7B
:102D2000EA2214C0EEFF15C0EEFF16C0EEFF17C07A
:102D3000EEFFA2C1E9FFA3C1EAFF020EE926000EE1
:102D4000EA22EECF14F0EFCF15F029CCE9FF2ACC20
:102D5000EAFF140EEA02F3CFEAFFE902F3CFE9FF3C
:102D6000F450EA26B80EE926020EEA22100EE926F1
:102D7000000EEA2214C0EEFF15C0EDFF59EC77F00B
:102D800006C014F007C015F029CCE9FF2ACCEAFFF1
:102D9000140EEA02F3CFEAFFE902F3CFE9FFF450A1
:102DA000EA26B80EE926020EEA22120EE926000EE5
:102DB000EA2214C0EEFF15C0EDFF05D00C01252B53
:102DC0001ED7000E00D01200A6C1E9FFA7C1EAFF7E
:102DD000EECFBCF4EDCFBDF474EC51F0F3CF14F0B2
:102DE000F4CF15F0A6C1E9FFA7C1EAFF14C0EEFFBA
:102DF00015C0EDFFA6C1E9FFA7C1EAFF020EE92653
:102E0000000EEA22EECFBCF4EDCFBDF474EC51F02D
:102E1000F3CF14F0F4CF15F0A6C1E9FFA7C1EAFF84
:102E2000020E14C0EBFF030E15C0EBFFA6C1E9FFB5
:102E3000A7C1EAFF040EE926000EEA22EECFBEF497
:102E4000EECFBFF4EECFC0F4EFCFC1F484EC51F07D
:102E500006C014F007C015F008C016F009C017F03E
:102E6000A6C1E9FFA7C1EAFF040EE926000EEA2287
:102E700014C0EEFF15C0EEFF16C0EEFF17C0EEFF48
:102E8000A6C1E9FFA7C1EAFF080EE926000EEA2263
:102E9000EECFBEF4EECFBFF4EECFC0F4EFCFC1F46F
:102EA00084EC51F006C014F007C015F008C016F00D
:102EB00009C017F0A6C1E9FFA7C1EAFF080EE9267D
:102EC000000EEA2214C0EEFF15C0EEFF16C0EEFFA2
:102ED00017C0EEFFA6C1E9FFA7C1EAFF0E0EE92663
:102EE000000EEA22EECFBCF4EDCFBDF474EC51F04D
:102EF000F3CF14F0F4CF15F0A6C1E9FFA7C1EAFFA4
:102F00000E0E14C0EBFF0F0E15C0EBFFA6C1E9FFBC
:102F1000A7C1EAFF100EE926000EEA22EECFBCF4AC
:102F2000EDCFBDF474EC51F0F3CF14F0F4CF15F005
:102F3000A6C1E9FFA7C1EAFF100E14C0EBFF110EF6
:102F400015C0EBFFA6C1E9FFA7C1EAFF120EE926F3
:102F5000000EEA22EECFBCF4EDCFBDF474EC51F0DC
:102F6000F3CF14F0F4CF15F0A6C1E9FFA7C1EAFF33
:102F7000120E14C0EBFF130E15C0EBFF120047EC4E
:102F800001F012C140F113C141F127C12DF128C157
:102F90002EF127C12FF128C130F129C131F12AC109
:102FA00032F129C133F12AC134F101013E51080B3C
:102FB00002E0040E01D00D0E3D6F3E913E933E9512
:102FC0003E993E9B3E9D3E9F3F913F933F953F974D
:102FD0003F89249124932497249927C10EF128C175
:102FE0000FF17CEC76F0F3CF06F1F4CF07F17CEC37
:102FF00076F0F3CF08F1F4CF09F1010122692369DA
:10300000010E146F156B1200A8C1E9FFA9C1EAFFF8
:103010000D0EE926000EEA22EFCF33FCA8C1E9FF2E
:10302000A9C1EAFF080EE926000EEA22EECF34FC21
:10303000EECF35FCEECF36FCEFCF37FCA8C1E9FF71
:10304000A9C1EAFF040EE926000EEA22EECF38FC01
:10305000EECF39FCEECF3AFCEFCF3BFC01013E91C5
:103060003E933E953EB913D04EEC77F006C035F155
:1030700007C036F108C037F109C038F1E60E01018A
:103080003527F50E3623050E3723000E38233D5124
:10309000050A43E0010A08E0AAC13CFCABC13DFCC3
:1030A0000C0133A1B2D0AED00C0133A503D067DF41
:1030B00088EF1FF033A912D034CC06F135CC07F1DC
:1030C00036CC08F137CC09F10101A16B0101040EE6
:1030D000A06F0DEC11F053DF88EF1FF033A31AD06F
:1030E00038CC0AF139CC0BF13ACC0CF13BCC0DF1D8
:1030F00001010A2B000E0B230C230D230101010EED
:10310000A16F0101120EA06F0DEC11F00101060E6E
:103110003D6F01D034DF88EF1FF00C0133A502D0E2
:1031200088EF1FF033A934D0340EE96E0C0EEA6E2E
:10313000EE500101061909E1EE50071906E1EE50C3
:10314000081903E1EE50091900E122E006C138FC3C
:1031500007C139FC08C13AFC09C13BFC34CC06F17B
:1031600035CC07F136CC08F137CC09F10101010E5D
:10317000A16F0101040EA06F0DEC11F038CC06F127
:1031800039CC07F13ACC08F13BCC09F188EF1FF0BC
:103190000C0133A335D038CC0AF139CC0BF13ACC41
:1031A0000CF13BCC0DF101010A2B000E0B230C237B
:1031B0000D23A8C1E9FFA9C1EAFF0E0EE926000E02
:1031C000EA22EECF14F1EDCF15F10C0133A90DD0A9
:1031D0000101010EA16F0101100EA06F0DEC11F0A5
:1031E0000101070E3D6F3E990BD00101010EA16F49
:1031F0000101120EA06F0DEC11F00101060E3D6FE2
:1032000088EF1FF03C2B000E3D2333A303D03C2B53
:10321000000E3D2301013351315D3451325914E325
:1032200029512B5D146E2C512A55156E3351315D89
:10323000166E32513455176E0C011650145C316FF6
:1032400017501558326F0DD03151335D0C01316F6D
:103250000101325134590C01326F010E315F000E01
:10326000325B0A0EE96E010EEA6EEE50385D2B6F8E
:10327000EE5039592C6FEE503A592D6FEE503B59A4
:103280002E6F2BCC2FFC2CCC30FC3E6B3C513D11D7
:1032900001E181D03151321101E17CD0800E2E1537
:1032A00018E131CC14F032CC15F0166A176A2E51A1
:1032B0001718E8AE02D0173408D014502B5D155003
:1032C0002C5916502D5917502E5903E2010E3E6FFE
:1032D0003DD03CCC14F03DCC15F0166A176A2B0E8D
:1032E000E96E0C0EEA6EEE501426EE501522EE50EA
:1032F0001622EE5017221734000E171809E6D88050
:10330000000E1454000E1554000E1654000E1754DF
:103310001DE23C51315D186E32513D55196E1A6AED
:103320001B6A19AE02D01A681B681B502E19E8AE32
:1033300002D02E3508D02B51185C2C5119582D5124
:103340001A582E511B5802E3010E3E6F31CC14F077
:1033500032CC15F0166A176A2E511718E8AE02D053
:10336000173408D014502B5D15502C5916502D5978
:1033700017502E590FE22F513C25186E30513D2128
:10338000196E193404E218500008000E195402E2B4
:10339000010E3E6F22D02B512C112D112E1103E165
:1033A000010E3E6F1AD0800E2E1517E131CC14F0AD
:1033B00032CC15F0166A176A2E511718E8AE02D0F3
:1033C000173408D014502B5D15502C5916502D5918
:1033D00017502E5902E2010E3E6F3E510CE133B5FB
:1033E00008D00101010EA16F0101100EA06F0DECBC
:1033F00011F088EF1FF0060E331503E0C0DD88EFF3
:103400001FF033B902D088EF1FF001013D510C0AC3
:1034100001E152D20B0A40E00F0A3EE0010A3CE013
:10342000020A3AE0010A38E00C0A01E05AD2340EEE
:10343000E96E0C0EEA6EEE50061909E1EE5007191E
:1034400006E1EE50081903E1EE50091900E122E00F
:1034500006C138FC07C139FC08C13AFC09C13BFC74
:1034600034CC06F135CC07F136CC08F137CC09F174
:103470000101010EA16F0101040EA06F0DEC11F00E
:1034800038CC06F139CC07F13ACC08F13BCC09F144
:1034900088EF1FF0070E3D6F0E512D5D0C01296F57
:1034A00001010F512E590C012A6F800E2A150CE0D4
:1034B00001012751295D146E2A512855156E1450AB
:1034C0000C01292715502A2329CC14F02ACC15F0F9
:1034D000166A176A060EE96E010EEA6EEE501424A3
:1034E000256FEE501520266FEE501620276FEE50F8
:1034F0001720286F340EE96E0C0EEA6EEE50255D33
:10350000146EEE502659156EEE502759166EEE5079
:103510002859176E0001800E171409E00101A16BF4
:103520000101100EA06F0DEC11F088EF1FF00101EA
:103530002F510E5D146E0F513055156E166A176AB5
:1035400015AE02D016681768060EE96E010EEA6E17
:103550001450EE5C0C01256F1550EE58266F165076
:10356000EE58276F1750EE58286F01012F510E5D4E
:1035700030510F5911E22751295D146E2A512855F7
:10358000156E166A176A14500C01255F1550265BDC
:103590001650275B1750285B250EE96E0C0EEA6E5D
:1035A000EE500C01345D256FEE503559266FEE500C
:1035B0003659276FEE503759286F2835000E2819D5
:1035C00009E6D880000E2555000E2655000E275519
:1035D000000E285501E397D001012751295D146E93
:1035E0002A512855156E166A176A0C012551145C6C
:1035F00026511558275116582851175801E283D0E3
:103600000101249724993F912FC129FC30C12AFC44
:103610000C01255101012F270C01265101013023F6
:103620000C01295101010E5D0C012A5101010F59B4
:103630001BE32F510E5D30510F5915E20E512F5DD6
:10364000146E30510F55156E0001145001010627FC
:103650000001155001010723000E082309232FC183
:103660000EF130C10FF12FD02751295D146E2A5170
:103670002855156E0E5114240C01296F01010F51AC
:1036800015200C012A6F01012F510C01295D010148
:1036900030510C012A5917E2295101012F5D146E96
:1036A00030510C012A55156E0001145001010627F6
:1036B0000001155001010723000E082309232FC123
:1036C0000EF130C10FF1010129512F5D2A513059FE
:1036D0000AE32751295D146E2A512855156E14509E
:1036E0002F5F1550305B29510E5D2A510F590AE3A7
:1036F0002751295D146E2A512855156E14500E5FFE
:1037000015500F5B3FD001010E512F1902E10F51EF
:10371000301938E024A735D024A932D02F510E5DBE
:10372000146E0F513055156E166A176A15AE02D019
:10373000166817681450065F1550075B1650085B33
:103740001750095B2F510E5D30510F5914E227516C
:10375000295D146E2A512855156E166A176A15AE22
:1037600002D0166817681450065F1550075B165094
:10377000085B1750095B2FC10EF130C10FF13F8577
:10378000248924872D512F1902E12E5130191AE175
:103790003FB702D03E9916D0060EE96E010EEA6ED2
:1037A000EE500C01341909E1EE50351906E1EE50E6
:1037B000361903E1EE50371900E104E101013E99A9
:1037C0003F9724910101145115110CE1A8C1E9FFA3
:1037D000A9C1EAFF0E0EE926000EEA22EE50ED1016
:1037E00001E03F83A8C1E9FFA9C1EAFF0E0EE92667
:1037F000000EEA22EECF14F1EDCF15F1080E3D5D7B
:1038000029E1060EE96E010EEA6EEE500C01341944
:1038100009E1EE50351906E1EE50361903E1EE509C
:10382000371900E116E14EEC77F006C035F107C01C
:1038300036F108C037F109C038F1F30E0101352720
:10384000FA0E3623020E3723000E38233E89090E66
:103850003D6F31D0090E3D5D16E10C0133B112D040
:1038600034CC06F135CC07F136CC08F137CC09F170
:103870000101A16B0101140EA06F0DEC11F0BFEC62
:1038800017F046D318D00A0E3D5D15E1060EE96E1D
:10389000010EEA6EEE500C01341909E1EE503519B3
:1038A00006E1EE50361903E1EE50371900E102E16E
:1038B000BFEC17F02DD316D0060EE96E010EEA6E9E
:1038C000EE500C01341909E1EE50351906E1EE50C5
:1038D000361903E1EE50371900E102E1BFEC17F0B1
:1038E00017D300D00C0133BB13D30B0E01013D5D88
:1038F00001E10ED30A0E3D5D01E10AD30C0E3D5DE0
:1039000001E106D3AA51AB1101E14ED20C013035D1
:1039100004E22F510008000E305501E2E8D0A8C1A2
:10392000E9FFA9C1EAFF0C0EE926000EEA22EF50DA
:10393000F00BE842E842E842E842040DF350146E0E
:10394000156A2F51145C05017D6F0C01305115581B
:1039500005017E6F5AEC71F00C012F510101AA276D
:103960000C0130510101AB23AA510C01315D010161
:10397000AB510C01325904E231CCAAF132CCABF19B
:103980000101AA510A27AB510B23000E0C230D2372
:103990003151AA25146E3251AB21156E14502B5D96
:1039A00015502C5946E231512B5D0C01296F010154
:1039B00032512C590C012A6F010E2927000E2A239F
:1039C00029CCB8F12ACCB9F10101B76B0101B56975
:1039D000B66942C1B4F131C1B2F132C1B3F1C5DB54
:1039E0000C0129510101AA5D0101B86F0C012A5196
:1039F0000101AB590101B96F0101B76B0101B56953
:103A0000B66942C1B4F129C1B2F12AC1B3F1ADDB4B
:103A10000C0129510101AA5D146EAB510C012A550C
:103A2000156E010129511424316F2A511520326F6E
:103A300015D0AAC1B8F1ABC1B9F10101B76B010151
:103A4000B569B66942C1B4F131C1B2F132C1B3F165
:103A50008CDB0101AA513127AB513223221D01E138
:103A6000231D44E0AA51225FAB51235B165122254E
:103A70000C01296F0101175123210C012A6F800EBF
:103A80002A1504E001012269236930D001012335A0
:103A900004E222510008000E235528E30C012951AD
:103AA00001010A270C012A5101010B23000E0C23EE
:103AB0000D230C012951010131270C012A5101016B
:103AC000322331512B5D32512C590EE229512B5D9D
:103AD000146E2C512A55156E010E1426000E152257
:103AE0001450315F1550325B226923695DD1303546
:103AF00004E22F510008000E305501E355D10101B9
:103B0000AA510C012F25146E0101AB510C0130217B
:103B1000156E1450315D1550325909E22F51315D47
:103B20000101AA6F0C01305132590101AB6FA8C1DC
:103B3000E9FFA9C1EAFF0C0EE926000EEA22EF50C8
:103B4000F00BE842E842E842E842040DF350050178
:103B50007D6F7E6B5AEC71F0010131510C012F2504
:103B6000166E010132510C013021176E1650010101
:103B7000AA25146E1750AB21156E14502B5D1550ED
:103B80002C596EE231512B5D146E2C513255156E4D
:103B9000010E1426000E15220C012F51145C296F02
:103BA000305115582A6F800E2A1531E129CCB8F111
:103BB0002ACCB9F10101B76B0101B569B66942C1FF
:103BC000B4F1010131510C012F250101B26F010146
:103BD00032510C0130210101B36FC7DA0C012951B8
:103BE0000101AA5D0101B86F0C012A510101AB5915
:103BF0000101B96F0101B76B0101B569B66942C135
:103C0000B4F129C1B2F12AC1B3F1AFDA28D0AAC107
:103C1000B8F1ABC1B9F10101B76B0101B569B66982
:103C200042C1B4F1010131510C012F25146E010183
:103C300032510C013021156E010129512B5D166E98
:103C40002C512A55176E010E1626000E172201015F
:103C50001650145CB26F17501558B36F86DA18D02F
:103C6000AAC1B8F1ABC1B9F10101B76B0101B569E6
:103C7000B66942C1B4F1010131510C012F25010196
:103C8000B26F010132510C0130210101B36F6DDAC5
:103C90000101221D01E1231D09E12FCC22F130CCCD
:103CA00023F1AAC116F1ABC117F17ED022510C014C
:103CB0002F5D010123510C0130593DE22F510101CB
:103CC000AA25146E0C0130510101AB21156E225151
:103CD0001625166E23511721176E1450165C1550B9
:103CE00017580FE30C012F510101AA25186E0C0182
:103CF00030510101AB21196E2251185C2351195822
:103D000005E2AAC116F1ABC117F110D02251162558
:103D1000146E23511721156E0C012F51145C0101F3
:103D2000166F0C01305115580101176F2FCC22F17D
:103D300030CC23F139D02F510101AA25146E0C018A
:103D400030510101AB21156E22511625166E2351FB
:103D50001721176E1450165C1550175825E2225182
:103D60001625146E23511721156E0C012F51145C6A
:103D70003051155819E32F510101AA25186E0C0175
:103D800030510101AB21196E2251185C166E23517E
:103D90001958176E1651165C146E17511758156E78
:103DA00014501627155017230C013C513D1124E0E7
:103DB000070E01013D5D04E031C133F132C134F140
:103DC0003EAF0BD00101010EA16F0101100EA06FDB
:103DD0000DEC11F047EC01F00FD03E8F3EBD0CD042
:103DE0003E8D59EC77F006C03BF107C03CF10F0E59
:103DF00001013B27000E3C230C0133A189D00AC1ED
:103E000014F00BC115F00CC116F00DC117F0142AF7
:103E1000000E1522162217223CCC18F03DCC19F0CA
:103E20001A6A1B6A380EE96E0C0EEA6EEE501826FE
:103E3000EE501922EE501A22EE501B221450181880
:103E400009E11550191806E116501A1803E1175028
:103E50001B1800E15DE101010A2B000E0B230C236E
:103E60000D233D51090A41E0010A1EE00F0A0EE050
:103E7000010A01E044D00C0E3D6F0101010EA16F5B
:103E80000101110EA06F0DEC11F042D00B0E3D6F31
:103E900059EC77F006C03BF107C03CF11E0E010162
:103EA0003B27000E3C232CD0060EE96E010EEA6E75
:103EB000EE500C01341909E1EE50351906E1EE50CF
:103EC000361903E1EE50371900E10BE10101A16B56
:103ED0000101100EA06F0DEC11F0BFEC17F018D01F
:103EE00003D001010A0E3D6F0BD00101A16B01014E
:103EF000100EA06F0DEC11F0BFEC17F009D000D040
:103F00000101010EA16F0101100EA06F0DEC11F067
:103F10001200ACC143F100EC01F00101AD51AE1152
:103F200003E1010EAD6FAE6B27512B5D0C01006FED
:103F3000010128512C590C01016F010E005F000E88
:103F4000015B0101AD51AF25146EAE51B021156E6C
:103F50000C011450005D1550015902E2000E04D10D
:103F600047EC01F0030E0101B11502E1030EB1139C
:103F7000AFC104FCB0C105FCAD51AF25146EAE510C
:103F8000B021156E14500C01005F1550015B01014A
:103F9000B1A314D0B1A10DD000CC14F001CC15F018
:103FA000D8901532143214500C01042715500523F3
:103FB00005D00C01005104270151052301012751AF
:103FC0000C010425006F010128510C010521016F2E
:103FD000010E0027000E012331C102FC32C103FC97
:103FE0000101221D01E1231D22E022511625146E3C
:103FF00023511721156E14500C010227155003236D
:10400000025101012B5D0C01035101012C590FE2FA
:1040100029512B5D146E2C512A55156E010E142654
:10402000000E152214500C01025F1550035B0C01A9
:1040300002510101335D0C0103510101345917E2B2
:104040000C0100510101335D0C0101510101345992
:104050000DE2B1A503D0000E87D008D000CC33F11B
:1040600001CC34F100CC31F101CC32F126D0335106
:104070000C01025D010134510C01035916E200519B
:104080000101295D0C01015101012A590DE2B1A57F
:1040900003D0000E69D008D000CC33F101CC34F14C
:1040A00000CC31F101CC32F108D000CC33F101CC9D
:1040B00034F100CC31F101CC32F1010133510C016A
:1040C000025D010134510C01035930E2040E01017B
:1040D000B1152CE029510C01025D0101B86F0101FD
:1040E0002A510C0103590101B96F42C1B7F129C12D
:1040F000B5F12AC1B6F142C1B4F100CCB2F101CCA4
:10410000B3F133D801013351315D345132590EE2EC
:104110000C0100510101295D146E2A510C01015559
:10412000156E14500101315F1550325B00CC29F13E
:1041300001CC2AF127C10EF128C10FF127C12FF1BF
:1041400028C130F127C12DF128C12EF1070E010140
:104150003D5D08E10101010EA16F0101100EA06F8C
:104160000DEC11F0010E00D012000101B7512FE04B
:10417000010A01E059D0B45116E0010A01E026D04D
:10418000B8C1E6FFB9C1E6FFB5C1E6FFB6C1E6FFBB
:10419000B2C1E6FFB3C1E6FF14EC73F0146E060E75
:1041A000E15E145013D0B3BF06D0B2C17CF4B3C1EA
:1041B0007DF464EC64F0B8C193F4B9C194F4B5C172
:1041C00091F4B6C192F45DEC66F000D02DD0B451FC
:1041D00016E0010A01E027D0B6BF06D0B5C17EF4D3
:1041E000B6C17FF472EC64F0B8C18EF4B9C18FF43B
:1041F000B2C18CF4B3C18DF425EC66F014D0B8C113
:104200008AF4B9C18BF4B5C188F4B6C189F4B2C1DE
:1042100086F4B3C187F44BEC65F01BEC66F0000943
:1042200001E1FBD700D000D012000101BC5118E021
:10423000010A01E067D0C0C1E6FFC1C1E6FFBDC110
:10424000E6FFBEC1E6FFBFC1E6FFBAC1E6FFBBC1E4
:10425000E6FF3FEC73F0146E070EE15E145052D08F
:10426000BBBF06D0BAC17CF4BBC17DF464EC64F082
:10427000100E0C01106F116B0101C051C11141E012
:104280000C0110510101C05D0C0111510101C15916
:1042900004E2C0C110FCC1C111FC10CCE6FF11CC7E
:1042A000E6FFBDC1E6FFBEC1E6FFBFC1E6FF000EEF
:1042B000E66E0C0EE66E3FEC73F0146E070EE15ED8
:1042C000145010CC93F411CC94F40401000E916FAF
:1042D0000C0E926F5DEC66F010CC14F011CC15F062
:1042E000166A14500101BD271550BE231650BF2376
:1042F0000C0110510101C05F0C0111510101C15BA2
:06430000BBD700D0120043
:0A430600490E0F01391905E13A5183
:1043100003E13B5101E13C5101E174D3480E3919ED
:1043200005E13A5103E13B5101E13C5101E167D321
:10433000470E391905E13A5103E13B5101E13C5186
:1043400001E156D3460E391905E13A5103E13B51DB
:1043500001E13C5101E145D3450E391905E13A51DE
:1043600003E13B5101E13C5101E135D3440E3919E0
:1043700005E13A5103E13B5101E13C5101E124D314
:10438000430E391905E13A5103E13B5101E13C513A
:1043900001E113D3420E391905E13A5103E13B51D2
:1043A00001E13C5101E103D3330E391905E13A51E2
:1043B00003E13B5101E13C5101E1EFD2310E3919EA
:1043C00005E13A5103E13B5101E13C5101E1DED20B
:1043D000300E391905E13A5103E13B5101E13C51FD
:1043E00001E1CDD22F0E391905E13A5103E13B51DC
:1043F00001E13C5101E1BDD22E0E391905E13A51DE
:1044000003E13B5101E13C5101E1B0D22D0E3919DC
:1044100005E13A5103E13B5101E13C5101E1A3D2F5
:104420002C0E391905E13A5103E13B5101E13C51B0
:1044300001E196D22B0E391905E13A5103E13B51C6
:1044400001E13C5101E189D22A0E391905E13A51C5
:1044500003E13B5101E13C5101E17CD2290E3919C4
:1044600005E13A5103E13B5101E13C5101E16FD2D9
:10447000280E391905E13A5103E13B5101E13C5164
:1044800001E162D2270E391905E13A5103E13B51AE
:1044900001E13C5101E155D2260E391905E13A51AD
:1044A00003E13B5101E13C5101E148D2250E3919AC
:1044B00005E13A5103E13B5101E13C5101E13BD2BD
:1044C000240E391905E13A5103E13B5101E13C5118
:1044D00001E12ED2230E391905E13A5103E13B5196
:1044E00001E13C5101E121D2220E391905E13A5195
:1044F00003E13B5101E13C5101E114D2210E391994
:1045000005E13A5103E13B5101E13C5101E107D2A0
:10451000200E391905E13A5103E13B5101E13C51CB
:1045200001E1FAD11F0E391905E13A5103E13B517E
:1045300001E13C5101E1EDD11E0E391905E13A517D
:1045400003E13B5101E13C5101E1E0D11D0E39197C
:1045500005E13A5103E13B5101E13C5101E1D3D185
:104560001C0E391905E13A5103E13B5101E13C517F
:1045700001E1C6D11B0E391905E13A5103E13B5166
:1045800001E13C5101E1B5D11A0E391905E13A5169
:1045900003E13B5101E13C5101E1A4D1190E39196C
:1045A00005E13A5103E13B5101E13C5101E193D175
:1045B000180E391905E13A5103E13B5101E13C5133
:1045C00001E183D1170E391905E13A5103E13B515D
:1045D00001E13C5101E173D1160E391905E13A515F
:1045E00003E13B5101E13C5101E166D1150E39195E
:1045F00005E13A5103E13B5101E13C5101E152D166
:10460000140E391905E13A5103E13B5101E13C51E6
:1046100001E13ED1130E391905E13A5103E13B5155
:1046200001E13C5101E12AD1120E391905E13A515B
:1046300003E13B5101E13C5101E115D1110E391962
:1046400005E13A5103E13B5101E13C5101E101D166
:10465000100E391905E13A5103E13B5101E13C519A
:1046600001E1ECD00F0E391905E13A5103E13B515C
:1046700001E13C5101E1D8D00E0E391905E13A5162
:1046800003E13B5101E13C5101E1C3D00D0E391969
:1046900005E13A5103E13B5101E13C5101E1B6D062
:1046A0000C0E391905E13A5103E13B5101E13C514E
:1046B00001E1A5D00B0E391905E13A5103E13B5157
:1046C00001E13C5101E194D00A0E391905E13A515A
:1046D00003E13B5101E13C5101E183D0090E39195D
:1046E00005E13A5103E13B5101E13C5173E0080E11
:1046F000391905E13A5103E13B5101E13C5163E0D5
:10470000070E391905E13A5103E13B5101E13C51F2
:1047100053E0060E391905E13A5103E13B5101E13D
:104720003C5143E0050E391905E13A5103E13B5193
:1047300001E13C5137E0040E391905E13A5103E13A
:104740003B5101E13C512CE0030E391905E13A518E
:1047500003E13B5101E13C5120E0020E391905E132
:104760003A5103E13B5101E13C510DE0010E391991
:1047700005E13A5103E13B5101E13C5101E045D1F2
:1047800061EC49F05DD10F01050E576FD50E586FE2
:10479000000E596F07EC39F053D1A4EC49F050D119
:1047A00051D94ED1E8EC47F04BD1070E0301E56F2C
:1047B000E66B98EC48F044D1060E0301E56FE66B1A
:1047C00098EC48F03DD1050E0301E56FE66B98ECDF
:1047D00048F036D1040E0301E56FE66B98EC48F023
:1047E0002FD1030E0301E56FE66B98EC48F028D15A
:1047F000020E0301E56FE66B98EC48F021D1010E43
:104800000301E56FE66B98EC48F01AD134EC49F0FF
:1048100017D1010E0301E96FEA6B040E0301E76F84
:10482000E86BCDEC48F00CD10301E96BEA6B040EA8
:104830000301E76FE86BCDEC48F002D1010E0301F4
:10484000E96FEA6B030E0301E76FE86BCDEC48F00C
:10485000F7D00301E96BEA6B030E0301E76FE86B26
:10486000CDEC48F0EDD0010E0301E96FEA6B020ECA
:104870000301E76FE86BCDEC48F0E2D00301E96B90
:10488000EA6B020E0301E76FE86BCDEC48F0D8D07D
:10489000010E0301E96FEA6B0301E76FE86BCDECF2
:1048A00048F0CED00301E96BEA6B010E0301E76F1C
:1048B000E86BCDEC48F0C4D042EC48F0C1D0030125
:1048C000E56BE66B98EC48F0BBD00301E36BE46B5F
:1048D00059EC48F0B5D0010E0301E36FE46B59ECDD
:1048E00048F0AED0020E0301E36FE46B59EC48F0E0
:1048F000A7D0030E0301E36FE46B59EC48F0A0D09E
:104900000DEC49F09DD0E8EC49F09AD06CEC4CF0FD
:1049100097D0EAEC4BF094D001EC4CF091D0E6EC5F
:104920004BF08ED0E7EC4BF08BD0E8EC4BF088D01E
:10493000A1EC4CF085D04FEC4BF082D0E5EC4AF086
:104940007FD0FCEC4AF07CD018EC4BF079D023EC13
:104950004BF076D02EEC4BF073D039EC4BF070D09E
:1049600044EC4BF06DD0CFEC4BF06AD0D1EC4BF077
:1049700067D00301F36BF46BE9EC4BF061D0010EEF
:104980000301F36FF46BE9EC4BF05AD0020E030114
:10499000F36FF46BE9EC4BF053D00F01FA0E576F45
:1049A000D40E586F000E596F07EC39F049D003014F
:1049B000EF6BF06BCDEC4BF043D0010E0301EF6FCA
:1049C000F06BCDEC4BF03CD0020E0301EF6FF06BBF
:1049D000CDEC4BF035D00301F16BF26BCEEC4BF02C
:1049E0002FD0010E0301F16FF26BCEEC4BF028D00B
:1049F000020E0301F16FF26BCEEC4BF021D03EECD6
:104A00004CF01ED055EC4CF01BD0040E0101696F28
:104A10006A6B0101F50E666FD40E676F000E686F4A
:104A200003018351E96EEA6AD890E936EA367F0ECF
:104A3000E926030EEA22EE52EFCF65F1E1EC05F034
:104A400000D0120001017E0E5F6F03018351E96EF9
:104A5000EA6AD890E936EA367F0EE926030EEA22A2
:104A6000EE52EFCF5EF1A7EC04F000D0120003018C
:104A7000836B020E835D5AE28351E96EEA6AD89035
:104A8000E936EA367F0EE926030EEA22EF6A0101D3
:104A9000080E4B6F500E0101496F4A6B0101486BC4
:104AA0000101446B456B466B476BF5EC02F0E66E1B
:104AB00003018351E96EEA6AD890E936EA367F0E3F
:104AC000E926030EEA22EE52E552E750EF6E146932
:104AD000156983517F0DF3CF14F0F4CF15F0166AEA
:104AE000176AFE0E14261E0E1522000E162217221D
:104AF00014C07CF415C07DF464EC64F0F3CF00FCCA
:104B0000F4CF01FC7F0E0401936F946B0401000E3F
:104B1000916F030E926F5DEC66F000CC7CF401CCDB
:104B20007DF464EC64F00301832BA3D7836B120044
:104B30000C01AF6B020EAF5D01E385D0AF51E96EA2
:104B4000EA6AD890E936EA367F0EE926030EEA22B1
:104B5000EE52EF50FE0801E173D0AF51E96EEA6A00
:104B6000D890E936EA367F0EE926030EEA22EE52A5
:104B7000EFCF4CF1C9EC03F000093BE0AFCC3DFFB7
:104B800063D803018351E96EEA6AD890E936EA36C0
:104B90007F0EE926030EEA22EF6AFF0E145D06E09F
:104BA00014C3D6F0F9EC3CF003011469FF0E155D57
:104BB00006E015C3D6F0F9EC3CF0030115690101DC
:104BC000040EB16F0101AF6BB06B010E0101AD6F4F
:104BD000AE6B03018351E96EEA6AD890E936EA3692
:104BE0007F0EE926030EEA22EE52EFCFACF189ECFC
:104BF0001FF00C01AF51E96EEA6AD890E936EA3647
:104C00007F0EE926030EEA22EF5016E1AF51E96E5E
:104C1000EA6AD890E936EA367F0EE926030EEA22E0
:104C2000EE52EFCF74F13AEC07F0F3CF14F0F4CF7B
:104C300015F01450151004E0AFCC3DFF05D863D833
:104C40000C01AF2B77D71200030183510F013D5D9B
:104C500001E158D0030183517F0DF3CF14F0F4CF5D
:104C600015F0166A176AFE0E14261E0E1522000E87
:104C70001622172214C07CF415C07DF464EC64F095
:104C8000F3CF00FCF4CF01FC7F0E0401936F946B13
:104C90000401000E916F030E926F5DEC66F000CC84
:104CA0007CF401CC7DF464EC64F00F013D517F0D88
:104CB000F3CF14F0F4CF15F0166A176AFE0E14261F
:104CC0001E0E1522000E1622172214C07EF415C0E7
:104CD0007FF472EC64F0F3CF00FCF4CF01FC7F0EA4
:104CE00004018E6F8F6B0401000E8C6F030E8D6FAD
:104CF00025EC66F000CC7EF401CC7FF472EC64F01D
:104D00003DCF83F312000C01010E936F0301835119
:104D1000E96EEA6AD890E936EA367F0EE926030E94
:104D2000EA22EF500B0A02E134EF31F0010A02E10E
:104D3000F7EF30F0030A02E1C2EF30F0010A02E1BE
:104D40009EEF30F00F0A02E181EF2EF0010A02E13E
:104D50004BEF2EF0030A02E114EF2DF0010A02E1FD
:104D600001EF2DF0070A02E1A8EF2CF0010A02E1A1
:104D7000DAEF2AF0030A67E0010A02E062EF31F09D
:104D80008351E96EEA6AD890E936EA367F0EE92661
:104D9000030EEA22EE52EFCF74F13AEC07F0F3CFB4
:104DA0008DFCF4CF8EFC0C018D518E114AE0030175
:104DB0001A0E106F030E116F8351E96EEA6AD890D4
:104DC000E936EA367F0EE926030EEA22010EEF6E7F
:104DD0001769166B4EEC77F006C008F307C009F3AD
:104DE00008C00AF309C00BF38B0E03010827D20E8B
:104DF00009231A0E0A23000E0B230C690D690E6994
:104E00000F69006B016B026B036B7E6B0101050E7A
:104E1000B16F0101AF6BB06B010E0101AD6FAE6BF5
:104E200003018351E96EEA6AD890E936EA367F0ECB
:104E3000E926030EEA22EE52EFCFACF189EC1FF027
:104E400002D062EF31F00101996B0101976B986B11
:104E50000101956B966B01010A0E946F030183515A
:104E6000E96EEA6AD890E936EA367F0EE926030E43
:104E7000EA22EE52EFCF93F125EC0CF0F3CF14F0D1
:104E8000F4CF15F00001141C01E1151C65E10301CC
:104E90008351E96EEA6AD890E936EA367F0EE92650
:104EA000030EEA22EE52EFCF7DF175EC08F0F3CF5E
:104EB00014F0F4CF15F01450151011E10301050E94
:104EC000186F8351E96EEA6AD890E936EA367F0EA8
:104ED000E926030EEA22070EEF6E0C01936B4EECEF
:104EE00077F003010851065C146E09510758156EDE
:104EF0000A510858166E0B510958176E1734000ED8
:104F0000171809E6D880000E1454000E1554000E30
:104F10001654000E17541EE28351E96EEA6AD890C7
:104F2000E936EA367F0EE926030EEA22EE52EFCF8B
:104F30004EF1E1EC03F003018351E96EEA6AD89087
:104F4000E936EA367F0EE926030EEA220B0EEF6EF3
:104F50000C01936B62EF31F04EEC77F006C008F372
:104F600007C009F308C00AF309C00BF38B0E030155
:104F70000827D20E09231A0E0A23000E0B23010163
:104F8000996B0101976B986B0101956B966B010111
:104F9000200E946F03018351E96EEA6AD890E936D6
:104FA000EA367F0EE926030EEA22EE52EFCF93F1A6
:104FB00025EC0CF0F3CF8DFCF4CF8EFC0C01050E2C
:104FC000D8808D55000E8E5503E2050E8D6F8E6BC9
:104FD000010E8D2501017B6F000E0C018E21010158
:104FE0007C6F01011A0E796F030E7A6F03018351F2
:104FF000E96EEA6AD890E936EA367F0EE926030EB2
:10500000EA22EE52EFCF78F1C2EC07F0030EE66E23
:10501000E66A2F0EE66ECE0EE66E000EE66E1A0EF5
:10502000E66E030EE66EF5EC72F0146E070EE15EAE
:105030001450000903E10301186B2CD0040EE66E36
:10504000E66A2A0EE66ECE0EE66E000EE66E1A0ECA
:10505000E66E030EE66EF5EC72F0146E070EE15E7E
:105060001450000904E10301010E186F13D003016D
:10507000070E186F8351E96EEA6AD890E936EA366E
:105080007F0EE926030EEA22070EEF6E0C01936BEA
:1050900062EF31F00101996B0101976B986B01018F
:1050A000956B966B0101200E946F03018351E96E9D
:1050B000EA6AD890E936EA367F0EE926030EEA223C
:1050C000EE52EFCF93F125EC0CF0F3CF8DFCF4CF43
:1050D0008EFC0101996B8DCC97F18ECC98F101017A
:1050E000956B966B01013F0E946F03018351E96E3E
:1050F000EA6AD890E936EA367F0EE926030EEA22FC
:10510000EE52EFCF93F125EC0CF0F3CF8FFCF4CF00
:1051100090FC0C018F518D5D90518E5901E204D0AD
:105120008FCC8DFC90CC8EFC590ED8808D55000E06
:105130008E5513E20301050E186F8351E96EEA6A7A
:10514000D890E936EA367F0EE926030EEA22070EEA
:10515000EF6E0C01936B62EF31F08DCC7BF18ECC56
:105160007CF101011A0E796F030E7A6F03018351EE
:10517000E96EEA6AD890E936EA367F0EE926030E30
:10518000EA22EE52EFCF78F1C2EC07F0F3CF8FFCBA
:10519000F4CF90FC1A0E0C018F25E96E030E9021BE
:1051A000EA6EEF6A0F011A0E3F6F030E406FACEC10
:1051B00033F01A0EE66E030EE66ECBEC73F0E5529A
:1051C000E552F3CF8FFCF4CF90FC070EE66EE66A53
:1051D000230EE66ECE0EE66E000EE66E1B0EE66E3B
:1051E000030EE66EF5EC72F0146E070EE15E1450DD
:1051F000000920E103011B0E846F030E856F09EC8B
:1052000045F00301176F185103E1080E186F02D023
:10521000090E186F8351E96EEA6AD890E936EA36CA
:105220007F0EE926030EEA22020EEF6E0C01936B4D
:1052300062EF31F08FCCE9FF90CCEAFFE906000E77
:10524000EA5A1A0EE926030EEA22EF502F0809E067
:1052500000011B0ECF6F030ED06FDEEC39F003019F
:10526000146FFF0E0301145D4CE18FCCE9FF90CC6D
:10527000EAFFE906000EEA5A1A0EE926030EEA22B0
:10528000EF502F080EE00C018FCCE9FF90CCEAFF25
:105290008F2B000E90231A0EE926030EEA222F0E02
:1052A000EF6E190EE66ECE0EE66E000EE66E1A0E6C
:1052B0000C018F25146E030E9021156E14C0E6FFAD
:1052C00015C0E6FFB2EC73F0166E050EE15E1650E7
:1052D000190EE66ECE0EE66E000EE66ED9EC73F099
:1052E000E552E552E55207500C018F2708509023F4
:1052F00000011B0ECF6F030ED06FDEEC39F00301FF
:10530000146F1A0E0C018F25946F030E9021956F68
:10531000010E945F000E955B1A0E941902E1030EC4
:1053200095190CE094CCE9FF95CCEAFFEF502E08DC
:1053300001E104D09407000E955BEED7942B000E8C
:1053400095230301196B0B0EE76E1919E8AE02D015
:10535000E73402D0E750195D42E2830E146EF10E7D
:10536000156E000E166E19C317F0186A196A17AE7B
:1053700002D018681968030E0C6E0D6A0E6A17C009
:1053800007F018C008F019C009F028EC78F004C044
:1053900017F005C018F006C019F014501724F36E6A
:1053A00015501820F46E16501920F86EF4CFF7FF40
:1053B000F3CFF6FF0900F5CFB9F40900F5CFBAF441
:1053C0000800F5CFBBF494CCB7F495CCB8F420EC3E
:1053D00051F0000901E103D00301192BB4D70301F7
:1053E0001B0E846F030E856F09EC45F00301176FE8
:1053F000FF0E145D18E014C3F2F081EC42F0F3509C
:10540000020B11E014C3FDF0AFEC44F0F3CFD4F085
:10541000F4CFD5F0010E0001D427000ED52370EC97
:105420003CF00301156F0101996B0101976B986BBB
:105430000101956B966B0101200E946F030183515E
:10544000E96EEA6AD890E936EA367F0EE926030E5D
:10545000EA22EE52EFCF93F125EC0CF0F3CF8DFC66
:10546000F4CF8EFC0C018D518E115BE00301010E17
:10547000166F0101910E766F0C0E776F0301835149
:10548000E96EEA6AD890E936EA367F0EE926030E1D
:10549000EA22EE52EFCF75F16CEC07F00C018D07AC
:1054A000000E8E5B620E8D5D000E8E5913E30301BC
:1054B000050E186F8351E96EEA6AD890E936EA362C
:1054C0007F0EE926030EEA22070EEF6E0C01936BA6
:1054D00062EF31F08DCC7BF18ECC7CF101011A0EA4
:1054E000796F030E7A6F03018351E96EEA6AD890EF
:1054F000E936EA367F0EE926030EEA22EE52EFCFB6
:1055000078F1C2EC07F0F35003011027F450112397
:1055100010C3E9FF11C3EAFF102B000E1123260E62
:10552000EF6E0101996B0101976B986B0101956B0F
:10553000966B01010A0E946F03018351E96EEA6ACA
:10554000D890E936EA367F0EE926030EEA22EE52BB
:10555000EFCF93F125EC0CF0F3CF8DFCF4CF8EFC64
:10556000010E0C018D2501017B6F000E0C018E21B7
:1055700001017C6F0101796B7A6B03018351E96E44
:10558000EA6AD890E936EA367F0EE926030EEA2267
:10559000EE52EFCF78F1C2EC07F003018351E96ED0
:1055A000EA6AD890E936EA367F0EE926030EEA2247
:1055B000020EEF6E0101996B0101976B986B01016F
:1055C000956B966B01010A0E946F03018351E96E8E
:1055D000EA6AD890E936EA367F0EE926030EEA2217
:1055E000EE52EFCF93F125EC0CF0F3CF8DFCF4CF1E
:1055F0008EFC0C018D1D01E18E1D64E103018351C0
:10560000E96EEA6AD890E936EA367F0EE926030E9B
:10561000EA22EE52EFCF7DF175EC08F0F3CF14F0F3
:10562000F4CF15F01450151011E10301050E186F99
:105630008351E96EEA6AD890E936EA367F0EE926A8
:10564000030EEA22070EEF6E0C01936B4EEC77F01F
:1056500003010851065C146E09510758156E0A5172
:105660000858166E0B510958176E1734000E17188C
:1056700009E6D880000E1454000E1554000E16547E
:10568000000E17541EE28351E96EEA6AD890E9369B
:10569000EA367F0EE926030EEA22EE52EFCF4EF1F4
:1056A000E1EC03F003018351E96EEA6AD890E93630
:1056B000EA367F0EE926030EEA220B0EEF6E0C018E
:1056C000936B44D14EEC77F006C008F307C009F3A2
:1056D00008C00AF309C00BF38B0E03010827D20E92
:1056E00009231A0E0A23000E0B230C01010E8D193B
:1056F00001E18E5127E1020E01017B6F7C6B0101FC
:10570000796B7A6B03018351E96EEA6AD890E936C6
:10571000EA367F0EE926030EEA22EE52EFCF78F149
:10572000C2EC07F003018351E96EEA6AD890E936CA
:10573000EA367F0EE926030EEA22030EEF6E0C0115
:10574000936B04D10101996B8DCC97F18ECC98F1BC
:105750000101956B966B01013A0E946F0301835121
:10576000E96EEA6AD890E936EA367F0EE926030E3A
:10577000EA22EE52EFCF93F125EC0CF0F3CF8FFC41
:10578000F4CF90FC020E0C018F27000E9023936B38
:10579000100ED8808F55000E90551DE2010E8D25FC
:1057A00001017B6F000E0C018E2101017C6F010154
:1057B000796B7A6B03018351E96EEA6AD890E93616
:1057C000EA367F0EE926030EEA22EE52EFCF78F199
:1057D000C2EC07F0EFD68FCC7BF190CC7CF10101CD
:1057E000960E796F0C0E7A6F03018351E96EEA6AA7
:1057F000D890E936EA367F0EE926030EEA22EE5209
:10580000EFCF78F1C2EC07F08FCCE9FF90CCEAFF44
:10581000E906000EEA5A960EE9260C0EEA22EF6A15
:105820000C018F518D5F90518E5B926B9251146E73
:10583000156A030E145C000E155849E2F50E146E3D
:10584000F10E156E000E166E92CC17F0186A196ADA
:10585000030E0C6E0D6A0E6A17C007F018C008F030
:1058600019C009F028EC78F004C017F005C018F052
:1058700006C019F014501724F36E15501820F46E5A
:1058800016501920F86EF4CFF7FFF3CFF6FF09009A
:10589000F5CFE6FF0900F5CFE6FF0800F5CFE6FFFC
:1058A000960EE66E0C0EE66E9CEC73F01A6E050E0C
:1058B000E15E1A50000908E192CC3EFF71EC32F033
:1058C0000C01010E936F03D00C01922BAFD79351B3
:1058D0001FE00101996B0101976B986B0101956BBA
:1058E000966B01010A0E946F03018351E96EEA6A17
:1058F000D890E936EA367F0EE926030EEA22EE5208
:10590000EFCF93F125EC0CF0F3CF8DFCF4CF8EFCB0
:10591000010E0C018D2501017B6F000E0C018E2103
:1059200001017C6F0101796B7A6B03018351E96E90
:10593000EA6AD890E936EA367F0EE926030EEA22B3
:10594000EE52EFCF78F1C2EC07F034D662EF31F0CF
:10595000800E175D12E2030E186F8351E96EEA6A3A
:10596000D890E936EA367F0EE926030EEA22070EC2
:10597000EF6E0C01936B62EF31F010C3E9FF11C3BE
:10598000EAFFEF6A0F011A0E3F6F030E406FACEC97
:1059900033F0F3CF10F3F4CF11F3080E0301185DC9
:1059A00010E18351E96EEA6AD890E936EA367F0E53
:1059B000E926030EEA22070EEF6E0C01936B62EFED
:1059C00031F08351E96EEA6AD890E936EA367F0E03
:1059D000E926030EEA22040EEF6E16510CE1835104
:1059E000E96EEA6AD890E936EA367F0EE926030EB8
:1059F000EA22050EEF6E0C01936B0301166B62EF4A
:105A000031F07AEC45F0020802E162EF31F0030177
:105A10008351E96EEA6AD890E936EA367F0EE926C4
:105A2000030EEA22050EEF6E8351E96EEA6AD89002
:105A3000E936EA367F0EE926030EEA22EE52EFCF70
:105A400074F13AEC07F0F3CF14F0F4CF15F0166AC6
:105A5000176A145003010C1909E115500D1906E1DC
:105A600016500E1903E117500F1900E13CE14EECFE
:105A700077F003010851065C146E09510758156E42
:105A80000A510858166E0B510958176E1734000E3C
:105A9000171809E6D880000E1454000E1554000E95
:105AA0001654000E17541FE28351E96EEA6AD8902B
:105AB000E936EA367F0EE926030EEA22EE52EFCFF0
